{
  "_format": "hh-sol-artifact-1",
  "contractName": "Faucet",
  "sourceName": "contracts/Faucet.sol",
  "abi": [
    {
      "inputs": [
        {
          "internalType": "address",
          "name": "_tokenAddress",
          "type": "address"
        },
        {
          "internalType": "address",
          "name": "_tokenAdmin",
          "type": "address"
        }
      ],
      "stateMutability": "nonpayable",
      "type": "constructor"
    },
    {
      "inputs": [],
      "name": "AccessControlBadConfirmation",
      "type": "error"
    },
    {
      "inputs": [
        {
          "internalType": "address",
          "name": "account",
          "type": "address"
        },
        {
          "internalType": "bytes32",
          "name": "neededRole",
          "type": "bytes32"
        }
      ],
      "name": "AccessControlUnauthorizedAccount",
      "type": "error"
    },
    {
      "inputs": [],
      "name": "ReentrancyGuardReentrantCall",
      "type": "error"
    },
    {
      "anonymous": false,
      "inputs": [
        {
          "indexed": true,
          "internalType": "address",
          "name": "by",
          "type": "address"
        }
      ],
      "name": "FaucetPaused",
      "type": "event"
    },
    {
      "anonymous": false,
      "inputs": [
        {
          "indexed": true,
          "internalType": "address",
          "name": "by",
          "type": "address"
        }
      ],
      "name": "FaucetUnpaused",
      "type": "event"
    },
    {
      "anonymous": false,
      "inputs": [
        {
          "indexed": false,
          "internalType": "uint256",
          "name": "currentBalance",
          "type": "uint256"
        },
        {
          "indexed": false,
          "internalType": "uint256",
          "name": "threshold",
          "type": "uint256"
        },
        {
          "indexed": false,
          "internalType": "uint256",
          "name": "timestamp",
          "type": "uint256"
        }
      ],
      "name": "LowBalance",
      "type": "event"
    },
    {
      "anonymous": false,
      "inputs": [
        {
          "indexed": true,
          "internalType": "bytes32",
          "name": "role",
          "type": "bytes32"
        },
        {
          "indexed": true,
          "internalType": "bytes32",
          "name": "previousAdminRole",
          "type": "bytes32"
        },
        {
          "indexed": true,
          "internalType": "bytes32",
          "name": "newAdminRole",
          "type": "bytes32"
        }
      ],
      "name": "RoleAdminChanged",
      "type": "event"
    },
    {
      "anonymous": false,
      "inputs": [
        {
          "indexed": true,
          "internalType": "bytes32",
          "name": "role",
          "type": "bytes32"
        },
        {
          "indexed": true,
          "internalType": "address",
          "name": "account",
          "type": "address"
        },
        {
          "indexed": true,
          "internalType": "address",
          "name": "sender",
          "type": "address"
        }
      ],
      "name": "RoleGranted",
      "type": "event"
    },
    {
      "anonymous": false,
      "inputs": [
        {
          "indexed": true,
          "internalType": "bytes32",
          "name": "role",
          "type": "bytes32"
        },
        {
          "indexed": true,
          "internalType": "address",
          "name": "account",
          "type": "address"
        },
        {
          "indexed": true,
          "internalType": "address",
          "name": "sender",
          "type": "address"
        }
      ],
      "name": "RoleRevoked",
      "type": "event"
    },
    {
      "anonymous": false,
      "inputs": [
        {
          "indexed": true,
          "internalType": "address",
          "name": "user",
          "type": "address"
        },
        {
          "indexed": false,
          "internalType": "uint256",
          "name": "amount",
          "type": "uint256"
        },
        {
          "indexed": false,
          "internalType": "uint256",
          "name": "timestamp",
          "type": "uint256"
        },
        {
          "indexed": false,
          "internalType": "uint256",
          "name": "windowTotal",
          "type": "uint256"
        }
      ],
      "name": "TokensClaimed",
      "type": "event"
    },
    {
      "anonymous": false,
      "inputs": [
        {
          "indexed": true,
          "internalType": "address",
          "name": "from",
          "type": "address"
        },
        {
          "indexed": false,
          "internalType": "uint256",
          "name": "amount",
          "type": "uint256"
        }
      ],
      "name": "TokensReceived",
      "type": "event"
    },
    {
      "inputs": [],
      "name": "DEFAULT_ADMIN_ROLE",
      "outputs": [
        {
          "internalType": "bytes32",
          "name": "",
          "type": "bytes32"
        }
      ],
      "stateMutability": "view",
      "type": "function"
    },
    {
      "inputs": [],
      "name": "WITHDRAWER_ROLE",
      "outputs": [
        {
          "internalType": "bytes32",
          "name": "",
          "type": "bytes32"
        }
      ],
      "stateMutability": "view",
      "type": "function"
    },
    {
      "inputs": [
        {
          "internalType": "address",
          "name": "user",
          "type": "address"
        }
      ],
      "name": "canClaim",
      "outputs": [
        {
          "internalType": "bool",
          "name": "allowed",
          "type": "bool"
        },
        {
          "internalType": "uint256",
          "name": "remaining",
          "type": "uint256"
        },
        {
          "internalType": "uint256",
          "name": "nextClaimTime",
          "type": "uint256"
        }
      ],
      "stateMutability": "view",
      "type": "function"
    },
    {
      "inputs": [],
      "name": "cooldownTime",
      "outputs": [
        {
          "internalType": "uint256",
          "name": "",
          "type": "uint256"
        }
      ],
      "stateMutability": "view",
      "type": "function"
    },
    {
      "inputs": [
        {
          "internalType": "bytes32",
          "name": "role",
          "type": "bytes32"
        }
      ],
      "name": "getRoleAdmin",
      "outputs": [
        {
          "internalType": "bytes32",
          "name": "",
          "type": "bytes32"
        }
      ],
      "stateMutability": "view",
      "type": "function"
    },
    {
      "inputs": [
        {
          "internalType": "bytes32",
          "name": "role",
          "type": "bytes32"
        },
        {
          "internalType": "address",
          "name": "account",
          "type": "address"
        }
      ],
      "name": "grantRole",
      "outputs": [],
      "stateMutability": "nonpayable",
      "type": "function"
    },
    {
      "inputs": [
        {
          "internalType": "bytes32",
          "name": "role",
          "type": "bytes32"
        },
        {
          "internalType": "address",
          "name": "account",
          "type": "address"
        }
      ],
      "name": "hasRole",
      "outputs": [
        {
          "internalType": "bool",
          "name": "",
          "type": "bool"
        }
      ],
      "stateMutability": "view",
      "type": "function"
    },
    {
      "inputs": [],
      "name": "lowBalanceThreshold",
      "outputs": [
        {
          "internalType": "uint256",
          "name": "",
          "type": "uint256"
        }
      ],
      "stateMutability": "view",
      "type": "function"
    },
    {
      "inputs": [],
      "name": "maxAmount",
      "outputs": [
        {
          "internalType": "uint256",
          "name": "",
          "type": "uint256"
        }
      ],
      "stateMutability": "view",
      "type": "function"
    },
    {
      "inputs": [],
      "name": "pauseFaucet",
      "outputs": [],
      "stateMutability": "nonpayable",
      "type": "function"
    },
    {
      "inputs": [],
      "name": "paused",
      "outputs": [
        {
          "internalType": "bool",
          "name": "",
          "type": "bool"
        }
      ],
      "stateMutability": "view",
      "type": "function"
    },
    {
      "inputs": [
        {
          "internalType": "uint256",
          "name": "amount",
          "type": "uint256"
        }
      ],
      "name": "receiveTokens",
      "outputs": [],
      "stateMutability": "nonpayable",
      "type": "function"
    },
    {
      "inputs": [
        {
          "internalType": "bytes32",
          "name": "role",
          "type": "bytes32"
        },
        {
          "internalType": "address",
          "name": "callerConfirmation",
          "type": "address"
        }
      ],
      "name": "renounceRole",
      "outputs": [],
      "stateMutability": "nonpayable",
      "type": "function"
    },
    {
      "inputs": [
        {
          "internalType": "uint256",
          "name": "amount",
          "type": "uint256"
        }
      ],
      "name": "requestTokens",
      "outputs": [],
      "stateMutability": "nonpayable",
      "type": "function"
    },
    {
      "inputs": [
        {
          "internalType": "bytes32",
          "name": "role",
          "type": "bytes32"
        },
        {
          "internalType": "address",
          "name": "account",
          "type": "address"
        }
      ],
      "name": "revokeRole",
      "outputs": [],
      "stateMutability": "nonpayable",
      "type": "function"
    },
    {
      "inputs": [
        {
          "internalType": "uint256",
          "name": "_cooldownTime",
          "type": "uint256"
        }
      ],
      "name": "setCooldownTime",
      "outputs": [],
      "stateMutability": "nonpayable",
      "type": "function"
    },
    {
      "inputs": [
        {
          "internalType": "uint256",
          "name": "_threshold",
          "type": "uint256"
        }
      ],
      "name": "setLowBalanceThreshold",
      "outputs": [],
      "stateMutability": "nonpayable",
      "type": "function"
    },
    {
      "inputs": [
        {
          "internalType": "uint256",
          "name": "_maxAmount",
          "type": "uint256"
        }
      ],
      "name": "setMaxAmount",
      "outputs": [],
      "stateMutability": "nonpayable",
      "type": "function"
    },
    {
      "inputs": [
        {
          "internalType": "address",
          "name": "_tokenAdmin",
          "type": "address"
        }
      ],
      "name": "setTokenAdmin",
      "outputs": [],
      "stateMutability": "nonpayable",
      "type": "function"
    },
    {
      "inputs": [
        {
          "internalType": "bytes4",
          "name": "interfaceId",
          "type": "bytes4"
        }
      ],
      "name": "supportsInterface",
      "outputs": [
        {
          "internalType": "bool",
          "name": "",
          "type": "bool"
        }
      ],
      "stateMutability": "view",
      "type": "function"
    },
    {
      "inputs": [],
      "name": "token",
      "outputs": [
        {
          "internalType": "contract IERC20",
          "name": "",
          "type": "address"
        }
      ],
      "stateMutability": "view",
      "type": "function"
    },
    {
      "inputs": [],
      "name": "tokenAdmin",
      "outputs": [
        {
          "internalType": "address",
          "name": "",
          "type": "address"
        }
      ],
      "stateMutability": "view",
      "type": "function"
    },
    {
      "inputs": [],
      "name": "unpauseFaucet",
      "outputs": [],
      "stateMutability": "nonpayable",
      "type": "function"
    },
    {
      "inputs": [
        {
          "internalType": "address",
          "name": "",
          "type": "address"
        }
      ],
      "name": "userClaims",
      "outputs": [
        {
          "internalType": "uint256",
          "name": "lastClaimTime",
          "type": "uint256"
        },
        {
          "internalType": "uint256",
          "name": "totalClaimed",
          "type": "uint256"
        }
      ],
      "stateMutability": "view",
      "type": "function"
    },
    {
      "inputs": [
        {
          "internalType": "uint256",
          "name": "amount",
          "type": "uint256"
        }
      ],
      "name": "withdrawTokens",
      "outputs": [],
      "stateMutability": "nonpayable",
      "type": "function"
    }
  ],
  "bytecode": "0x6080604052683635c9adc5dea000006003556201518060045569021e19e0c9bab240000060055534801561003257600080fd5b5060405161211c38038061211c83398181016040528101906100549190610318565b600160008190555081600260006101000a81548173ffffffffffffffffffffffffffffffffffffffff021916908373ffffffffffffffffffffffffffffffffffffffff16021790555080600660006101000a81548173ffffffffffffffffffffffffffffffffffffffff021916908373ffffffffffffffffffffffffffffffffffffffff1602179055506100f16000801b3361014560201b60201c565b506101227f10dac8c06a04bec0b551627dad28bc00d6516b0caacd1c7b345fcdb5211334e43361014560201b60201c565b506000600660146101000a81548160ff0219169083151502179055505050610358565b6000610157838361024260201b60201c565b61023757600180600085815260200190815260200160002060000160008473ffffffffffffffffffffffffffffffffffffffff1673ffffffffffffffffffffffffffffffffffffffff16815260200190815260200160002060006101000a81548160ff0219169083151502179055506101d46102ad60201b60201c565b73ffffffffffffffffffffffffffffffffffffffff168273ffffffffffffffffffffffffffffffffffffffff16847f2f8788117e7eff1d82e926ec794901d17c78024a50270940304540a733656f0d60405160405180910390a46001905061023c565b600090505b92915050565b60006001600084815260200190815260200160002060000160008373ffffffffffffffffffffffffffffffffffffffff1673ffffffffffffffffffffffffffffffffffffffff16815260200190815260200160002060009054906101000a900460ff16905092915050565b600033905090565b600080fd5b600073ffffffffffffffffffffffffffffffffffffffff82169050919050565b60006102e5826102ba565b9050919050565b6102f5816102da565b811461030057600080fd5b50565b600081519050610312816102ec565b92915050565b6000806040838503121561032f5761032e6102b5565b5b600061033d85828601610303565b925050602061034e85828601610303565b9150509250929050565b611db5806103676000396000f3fe608060405234801561001057600080fd5b50600436106101735760003560e01c806385f438c1116100de578063bf3506c111610097578063eef9c27c11610071578063eef9c27c14610400578063f0a3563c1461041c578063f74575941461044d578063fc0c546a1461046957610173565b8063bf3506c1146103a8578063d547741f146103da578063dad47e65146103f657610173565b806385f438c1146102e457806391d1485414610302578063a0eba21a14610332578063a217fddf1461034e578063b319c6b71461036c578063b7e1917c1461038a57610173565b80634d0d5e1f116101305780634d0d5e1f146102365780634fe47f70146102545780635c975abb146102705780635f48f3931461028e5780636ff73201146102ac578063743e0c9b146102c857610173565b806301ffc9a714610178578063057d7a62146101a8578063248a9ca3146101b25780632f2ff15d146101e2578063315a095d146101fe57806336568abe1461021a575b600080fd5b610192600480360381019061018d91906114aa565b610487565b60405161019f91906114f2565b60405180910390f35b6101b0610501565b005b6101cc60048036038101906101c79190611543565b61056f565b6040516101d9919061157f565b60405180910390f35b6101fc60048036038101906101f791906115f8565b61058f565b005b6102186004803603810190610213919061166e565b6105b1565b005b610234600480360381019061022f91906115f8565b61079c565b005b61023e610817565b60405161024b91906116aa565b60405180910390f35b61026e6004803603810190610269919061166e565b61081d565b005b610278610835565b60405161028591906114f2565b60405180910390f35b610296610848565b6040516102a391906116aa565b60405180910390f35b6102c660048036038101906102c1919061166e565b61084e565b005b6102e260048036038101906102dd919061166e565b610866565b005b6102ec610a28565b6040516102f9919061157f565b60405180910390f35b61031c600480360381019061031791906115f8565b610a4c565b60405161032991906114f2565b60405180910390f35b61034c6004803603810190610347919061166e565b610ab7565b005b610356610acf565b604051610363919061157f565b60405180910390f35b610374610ad6565b60405161038191906116aa565b60405180910390f35b610392610adc565b60405161039f91906116d4565b60405180910390f35b6103c260048036038101906103bd91906116ef565b610b02565b6040516103d19392919061171c565b60405180910390f35b6103f460048036038101906103ef91906115f8565b610bd1565b005b6103fe610bf3565b005b61041a6004803603810190610415919061166e565b610c61565b005b610436600480360381019061043191906116ef565b6110a6565b604051610444929190611753565b60405180910390f35b610467600480360381019061046291906116ef565b6110ca565b005b61047161111c565b60405161047e91906117db565b60405180910390f35b60007f7965db0b000000000000000000000000000000000000000000000000000000007bffffffffffffffffffffffffffffffffffffffffffffffffffffffff1916827bffffffffffffffffffffffffffffffffffffffffffffffffffffffff191614806104fa57506104f982611142565b5b9050919050565b6000801b61050e816111ac565b6001600660146101000a81548160ff0219169083151502179055503373ffffffffffffffffffffffffffffffffffffffff167f74d03c5210cf4c0fd09ffae325a47b04ce5a4ae65ddf9f414bddf0f7e3fa891660405160405180910390a250565b600060016000838152602001908152602001600020600101549050919050565b6105988261056f565b6105a1816111ac565b6105ab83836111c0565b50505050565b7f10dac8c06a04bec0b551627dad28bc00d6516b0caacd1c7b345fcdb5211334e46105db816111ac565b81600260009054906101000a900473ffffffffffffffffffffffffffffffffffffffff1673ffffffffffffffffffffffffffffffffffffffff166370a08231306040518263ffffffff1660e01b815260040161063791906116d4565b602060405180830381865afa158015610654573d6000803e3d6000fd5b505050506040513d601f19601f82011682018060405250810190610678919061180b565b10156106b9576040517f08c379a00000000000000000000000000000000000000000000000000000000081526004016106b090611895565b60405180910390fd5b600260009054906101000a900473ffffffffffffffffffffffffffffffffffffffff1673ffffffffffffffffffffffffffffffffffffffff1663a9059cbb33846040518363ffffffff1660e01b81526004016107169291906118b5565b6020604051808303816000875af1158015610735573d6000803e3d6000fd5b505050506040513d601f19601f82011682018060405250810190610759919061190a565b610798576040517f08c379a000000000000000000000000000000000000000000000000000000000815260040161078f90611983565b60405180910390fd5b5050565b6107a46112b1565b73ffffffffffffffffffffffffffffffffffffffff168173ffffffffffffffffffffffffffffffffffffffff1614610808576040517f6697b23200000000000000000000000000000000000000000000000000000000815260040160405180910390fd5b61081282826112b9565b505050565b60055481565b6000801b61082a816111ac565b816003819055505050565b600660149054906101000a900460ff1681565b60035481565b6000801b61085b816111ac565b816004819055505050565b600660009054906101000a900473ffffffffffffffffffffffffffffffffffffffff1673ffffffffffffffffffffffffffffffffffffffff163373ffffffffffffffffffffffffffffffffffffffff16146108f6576040517f08c379a00000000000000000000000000000000000000000000000000000000081526004016108ed906119ef565b60405180910390fd5b600260009054906101000a900473ffffffffffffffffffffffffffffffffffffffff1673ffffffffffffffffffffffffffffffffffffffff166323b872dd3330846040518463ffffffff1660e01b815260040161095593929190611a0f565b6020604051808303816000875af1158015610974573d6000803e3d6000fd5b505050506040513d601f19601f82011682018060405250810190610998919061190a565b6109d7576040517f08c379a00000000000000000000000000000000000000000000000000000000081526004016109ce90611983565b60405180910390fd5b3373ffffffffffffffffffffffffffffffffffffffff167f5a0ebf9442637ca6e817894481a6de0c29715a73efc9e02bb7ef4ed52843362d82604051610a1d91906116aa565b60405180910390a250565b7f10dac8c06a04bec0b551627dad28bc00d6516b0caacd1c7b345fcdb5211334e481565b60006001600084815260200190815260200160002060000160008373ffffffffffffffffffffffffffffffffffffffff1673ffffffffffffffffffffffffffffffffffffffff16815260200190815260200160002060009054906101000a900460ff16905092915050565b6000801b610ac4816111ac565b816005819055505050565b6000801b81565b60045481565b600660009054906101000a900473ffffffffffffffffffffffffffffffffffffffff1681565b600080600080600760008673ffffffffffffffffffffffffffffffffffffffff1673ffffffffffffffffffffffffffffffffffffffff168152602001908152602001600020604051806040016040529081600082015481526020016001820154815250509050426004548260000151610b7b9190611a75565b1015610b94576001600354600093509350935050610bca565b60008160200151600354610ba89190611aa9565b905060008111816004548460000151610bc19190611a75565b94509450945050505b9193909250565b610bda8261056f565b610be3816111ac565b610bed83836112b9565b50505050565b6000801b610c00816111ac565b6000600660146101000a81548160ff0219169083151502179055503373ffffffffffffffffffffffffffffffffffffffff167f05a32e0caf9e388d5ea411b05703847d12f03bd8a8b156b5eb8e62d716be773c60405160405180910390a250565b610c696113ac565b600660149054906101000a900460ff1615610cb9576040517f08c379a0000000000000000000000000000000000000000000000000000000008152600401610cb090611b29565b60405180910390fd5b60008111610cfc576040517f08c379a0000000000000000000000000000000000000000000000000000000008152600401610cf390611b95565b60405180910390fd5b600080610d0833610b02565b509150915081610d4d576040517f08c379a0000000000000000000000000000000000000000000000000000000008152600401610d4490611c01565b60405180910390fd5b80831115610d90576040517f08c379a0000000000000000000000000000000000000000000000000000000008152600401610d8790611c93565b60405180910390fd5b6000600260009054906101000a900473ffffffffffffffffffffffffffffffffffffffff1673ffffffffffffffffffffffffffffffffffffffff166370a08231306040518263ffffffff1660e01b8152600401610ded91906116d4565b602060405180830381865afa158015610e0a573d6000803e3d6000fd5b505050506040513d601f19601f82011682018060405250810190610e2e919061180b565b905083811015610e73576040517f08c379a0000000000000000000000000000000000000000000000000000000008152600401610e6a90611cff565b60405180910390fd5b6005548482610e829190611aa9565b1015610ed1577f08b79c53a755f9dd3a4d2c9461ab4c2eea8a0475de654ec1353add8a72f1b94f8482610eb59190611aa9565b60055442604051610ec893929190611d1f565b60405180910390a15b6000600760003373ffffffffffffffffffffffffffffffffffffffff1673ffffffffffffffffffffffffffffffffffffffff16815260200190815260200160002090506000426004548360000154610f299190611a75565b1015610f4057859050858260010181905550610f5c565b858260010154610f509190611a75565b90508082600101819055505b428260000181905550600260009054906101000a900473ffffffffffffffffffffffffffffffffffffffff1673ffffffffffffffffffffffffffffffffffffffff1663a9059cbb33886040518363ffffffff1660e01b8152600401610fc29291906118b5565b6020604051808303816000875af1158015610fe1573d6000803e3d6000fd5b505050506040513d601f19601f82011682018060405250810190611005919061190a565b611044576040517f08c379a000000000000000000000000000000000000000000000000000000000815260040161103b90611983565b60405180910390fd5b3373ffffffffffffffffffffffffffffffffffffffff167fe49649ad7d04a14b0d2a43dae89f207c0822143ff6f88a6480e88907e4e5c54887428460405161108e93929190611d1f565b60405180910390a250505050506110a36113f2565b50565b60076020528060005260406000206000915090508060000154908060010154905082565b6000801b6110d7816111ac565b81600660006101000a81548173ffffffffffffffffffffffffffffffffffffffff021916908373ffffffffffffffffffffffffffffffffffffffff1602179055505050565b600260009054906101000a900473ffffffffffffffffffffffffffffffffffffffff1681565b60007f01ffc9a7000000000000000000000000000000000000000000000000000000007bffffffffffffffffffffffffffffffffffffffffffffffffffffffff1916827bffffffffffffffffffffffffffffffffffffffffffffffffffffffff1916149050919050565b6111bd816111b86112b1565b6113fc565b50565b60006111cc8383610a4c565b6112a657600180600085815260200190815260200160002060000160008473ffffffffffffffffffffffffffffffffffffffff1673ffffffffffffffffffffffffffffffffffffffff16815260200190815260200160002060006101000a81548160ff0219169083151502179055506112436112b1565b73ffffffffffffffffffffffffffffffffffffffff168273ffffffffffffffffffffffffffffffffffffffff16847f2f8788117e7eff1d82e926ec794901d17c78024a50270940304540a733656f0d60405160405180910390a4600190506112ab565b600090505b92915050565b600033905090565b60006112c58383610a4c565b156113a15760006001600085815260200190815260200160002060000160008473ffffffffffffffffffffffffffffffffffffffff1673ffffffffffffffffffffffffffffffffffffffff16815260200190815260200160002060006101000a81548160ff02191690831515021790555061133e6112b1565b73ffffffffffffffffffffffffffffffffffffffff168273ffffffffffffffffffffffffffffffffffffffff16847ff6391f5c32d9c69d2a47ea670b442974b53935d1edc7fd64eb21e047a839171b60405160405180910390a4600190506113a6565b600090505b92915050565b6002600054036113e8576040517f3ee5aeb500000000000000000000000000000000000000000000000000000000815260040160405180910390fd5b6002600081905550565b6001600081905550565b6114068282610a4c565b6114495780826040517fe2517d3f000000000000000000000000000000000000000000000000000000008152600401611440929190611d56565b60405180910390fd5b5050565b600080fd5b60007fffffffff0000000000000000000000000000000000000000000000000000000082169050919050565b61148781611452565b811461149257600080fd5b50565b6000813590506114a48161147e565b92915050565b6000602082840312156114c0576114bf61144d565b5b60006114ce84828501611495565b91505092915050565b60008115159050919050565b6114ec816114d7565b82525050565b600060208201905061150760008301846114e3565b92915050565b6000819050919050565b6115208161150d565b811461152b57600080fd5b50565b60008135905061153d81611517565b92915050565b6000602082840312156115595761155861144d565b5b60006115678482850161152e565b91505092915050565b6115798161150d565b82525050565b60006020820190506115946000830184611570565b92915050565b600073ffffffffffffffffffffffffffffffffffffffff82169050919050565b60006115c58261159a565b9050919050565b6115d5816115ba565b81146115e057600080fd5b50565b6000813590506115f2816115cc565b92915050565b6000806040838503121561160f5761160e61144d565b5b600061161d8582860161152e565b925050602061162e858286016115e3565b9150509250929050565b6000819050919050565b61164b81611638565b811461165657600080fd5b50565b60008135905061166881611642565b92915050565b6000602082840312156116845761168361144d565b5b600061169284828501611659565b91505092915050565b6116a481611638565b82525050565b60006020820190506116bf600083018461169b565b92915050565b6116ce816115ba565b82525050565b60006020820190506116e960008301846116c5565b92915050565b6000602082840312156117055761170461144d565b5b6000611713848285016115e3565b91505092915050565b600060608201905061173160008301866114e3565b61173e602083018561169b565b61174b604083018461169b565b949350505050565b6000604082019050611768600083018561169b565b611775602083018461169b565b9392505050565b6000819050919050565b60006117a161179c6117978461159a565b61177c565b61159a565b9050919050565b60006117b382611786565b9050919050565b60006117c5826117a8565b9050919050565b6117d5816117ba565b82525050565b60006020820190506117f060008301846117cc565b92915050565b60008151905061180581611642565b92915050565b6000602082840312156118215761182061144d565b5b600061182f848285016117f6565b91505092915050565b600082825260208201905092915050565b7f496e73756666696369656e742062616c616e636520746f207769746864726177600082015250565b600061187f602083611838565b915061188a82611849565b602082019050919050565b600060208201905081810360008301526118ae81611872565b9050919050565b60006040820190506118ca60008301856116c5565b6118d7602083018461169b565b9392505050565b6118e7816114d7565b81146118f257600080fd5b50565b600081519050611904816118de565b92915050565b6000602082840312156119205761191f61144d565b5b600061192e848285016118f5565b91505092915050565b7f546f6b656e207472616e73666572206661696c65640000000000000000000000600082015250565b600061196d601583611838565b915061197882611937565b602082019050919050565b6000602082019050818103600083015261199c81611960565b9050919050565b7f4f6e6c7920746f6b656e2061646d696e2063616e2073656e6420746f6b656e73600082015250565b60006119d9602083611838565b91506119e4826119a3565b602082019050919050565b60006020820190508181036000830152611a08816119cc565b9050919050565b6000606082019050611a2460008301866116c5565b611a3160208301856116c5565b611a3e604083018461169b565b949350505050565b7f4e487b7100000000000000000000000000000000000000000000000000000000600052601160045260246000fd5b6000611a8082611638565b9150611a8b83611638565b9250828201905080821115611aa357611aa2611a46565b5b92915050565b6000611ab482611638565b9150611abf83611638565b9250828203905081811115611ad757611ad6611a46565b5b92915050565b7f4661756365742069732070617573656400000000000000000000000000000000600082015250565b6000611b13601083611838565b9150611b1e82611add565b602082019050919050565b60006020820190508181036000830152611b4281611b06565b9050919050565b7f416d6f756e74206d7573742062652067726561746572207468616e2030000000600082015250565b6000611b7f601d83611838565b9150611b8a82611b49565b602082019050919050565b60006020820190508181036000830152611bae81611b72565b9050919050565b7f43616e6e6f7420636c61696d20617420746869732074696d6500000000000000600082015250565b6000611beb601983611838565b9150611bf682611bb5565b602082019050919050565b60006020820190508181036000830152611c1a81611bde565b9050919050565b7f416d6f756e7420657863656564732072656d61696e696e6720616c6c6f77616e60008201527f6365000000000000000000000000000000000000000000000000000000000000602082015250565b6000611c7d602283611838565b9150611c8882611c21565b604082019050919050565b60006020820190508181036000830152611cac81611c70565b9050919050565b7f496e73756666696369656e7420746f6b656e7320696e20666175636574000000600082015250565b6000611ce9601d83611838565b9150611cf482611cb3565b602082019050919050565b60006020820190508181036000830152611d1881611cdc565b9050919050565b6000606082019050611d34600083018661169b565b611d41602083018561169b565b611d4e604083018461169b565b949350505050565b6000604082019050611d6b60008301856116c5565b611d786020830184611570565b939250505056fea26469706673582212207fe4b87db2b83e132fc1152eb6c5b01706da313bf993c26c9666e5b86d1cb00c64736f6c634300081c0033",
  "linkReferences": {},
  "deployedLinkReferences": {}
}