{
  "_format": "hh-sol-artifact-1",
  "contractName": "TestToken",
  "sourceName": "contracts/TestToken.sol",
  "abi": [
    {
      "inputs": [],
      "stateMutability": "nonpayable",
      "type": "constructor"
    },
    {
      "inputs": [],
      "name": "AccessControlBadConfirmation",
      "type": "error"
    },
    {
      "inputs": [
        {
          "internalType": "address",
          "name": "account",
          "type": "address"
        },
        {
          "internalType": "bytes32",
          "name": "neededRole",
          "type": "bytes32"
        }
      ],
      "name": "AccessControlUnauthorizedAccount",
      "type": "error"
    },
    {
      "inputs": [
        {
          "internalType": "address",
          "name": "spender",
          "type": "address"
        },
        {
          "internalType": "uint256",
          "name": "allowance",
          "type": "uint256"
        },
        {
          "internalType": "uint256",
          "name": "needed",
          "type": "uint256"
        }
      ],
      "name": "ERC20InsufficientAllowance",
      "type": "error"
    },
    {
      "inputs": [
        {
          "internalType": "address",
          "name": "sender",
          "type": "address"
        },
        {
          "internalType": "uint256",
          "name": "balance",
          "type": "uint256"
        },
        {
          "internalType": "uint256",
          "name": "needed",
          "type": "uint256"
        }
      ],
      "name": "ERC20InsufficientBalance",
      "type": "error"
    },
    {
      "inputs": [
        {
          "internalType": "address",
          "name": "approver",
          "type": "address"
        }
      ],
      "name": "ERC20InvalidApprover",
      "type": "error"
    },
    {
      "inputs": [
        {
          "internalType": "address",
          "name": "receiver",
          "type": "address"
        }
      ],
      "name": "ERC20InvalidReceiver",
      "type": "error"
    },
    {
      "inputs": [
        {
          "internalType": "address",
          "name": "sender",
          "type": "address"
        }
      ],
      "name": "ERC20InvalidSender",
      "type": "error"
    },
    {
      "inputs": [
        {
          "internalType": "address",
          "name": "spender",
          "type": "address"
        }
      ],
      "name": "ERC20InvalidSpender",
      "type": "error"
    },
    {
      "anonymous": false,
      "inputs": [
        {
          "indexed": true,
          "internalType": "address",
          "name": "owner",
          "type": "address"
        },
        {
          "indexed": true,
          "internalType": "address",
          "name": "spender",
          "type": "address"
        },
        {
          "indexed": false,
          "internalType": "uint256",
          "name": "value",
          "type": "uint256"
        }
      ],
      "name": "Approval",
      "type": "event"
    },
    {
      "anonymous": false,
      "inputs": [
        {
          "indexed": true,
          "internalType": "bytes32",
          "name": "role",
          "type": "bytes32"
        },
        {
          "indexed": true,
          "internalType": "bytes32",
          "name": "previousAdminRole",
          "type": "bytes32"
        },
        {
          "indexed": true,
          "internalType": "bytes32",
          "name": "newAdminRole",
          "type": "bytes32"
        }
      ],
      "name": "RoleAdminChanged",
      "type": "event"
    },
    {
      "anonymous": false,
      "inputs": [
        {
          "indexed": true,
          "internalType": "bytes32",
          "name": "role",
          "type": "bytes32"
        },
        {
          "indexed": true,
          "internalType": "address",
          "name": "account",
          "type": "address"
        },
        {
          "indexed": true,
          "internalType": "address",
          "name": "sender",
          "type": "address"
        }
      ],
      "name": "RoleGranted",
      "type": "event"
    },
    {
      "anonymous": false,
      "inputs": [
        {
          "indexed": true,
          "internalType": "bytes32",
          "name": "role",
          "type": "bytes32"
        },
        {
          "indexed": true,
          "internalType": "address",
          "name": "account",
          "type": "address"
        },
        {
          "indexed": true,
          "internalType": "address",
          "name": "sender",
          "type": "address"
        }
      ],
      "name": "RoleRevoked",
      "type": "event"
    },
    {
      "anonymous": false,
      "inputs": [
        {
          "indexed": true,
          "internalType": "address",
          "name": "to",
          "type": "address"
        },
        {
          "indexed": false,
          "internalType": "uint256",
          "name": "amount",
          "type": "uint256"
        },
        {
          "indexed": true,
          "internalType": "address",
          "name": "by",
          "type": "address"
        },
        {
          "indexed": false,
          "internalType": "uint256",
          "name": "timestamp",
          "type": "uint256"
        }
      ],
      "name": "TokensMinted",
      "type": "event"
    },
    {
      "anonymous": false,
      "inputs": [
        {
          "indexed": true,
          "internalType": "address",
          "name": "from",
          "type": "address"
        },
        {
          "indexed": true,
          "internalType": "address",
          "name": "to",
          "type": "address"
        },
        {
          "indexed": false,
          "internalType": "uint256",
          "name": "value",
          "type": "uint256"
        }
      ],
      "name": "Transfer",
      "type": "event"
    },
    {
      "inputs": [],
      "name": "DEFAULT_ADMIN_ROLE",
      "outputs": [
        {
          "internalType": "bytes32",
          "name": "",
          "type": "bytes32"
        }
      ],
      "stateMutability": "view",
      "type": "function"
    },
    {
      "inputs": [],
      "name": "MINTER_ROLE",
      "outputs": [
        {
          "internalType": "bytes32",
          "name": "",
          "type": "bytes32"
        }
      ],
      "stateMutability": "view",
      "type": "function"
    },
    {
      "inputs": [
        {
          "internalType": "address",
          "name": "owner",
          "type": "address"
        },
        {
          "internalType": "address",
          "name": "spender",
          "type": "address"
        }
      ],
      "name": "allowance",
      "outputs": [
        {
          "internalType": "uint256",
          "name": "",
          "type": "uint256"
        }
      ],
      "stateMutability": "view",
      "type": "function"
    },
    {
      "inputs": [
        {
          "internalType": "address",
          "name": "spender",
          "type": "address"
        },
        {
          "internalType": "uint256",
          "name": "value",
          "type": "uint256"
        }
      ],
      "name": "approve",
      "outputs": [
        {
          "internalType": "bool",
          "name": "",
          "type": "bool"
        }
      ],
      "stateMutability": "nonpayable",
      "type": "function"
    },
    {
      "inputs": [
        {
          "internalType": "address",
          "name": "account",
          "type": "address"
        }
      ],
      "name": "balanceOf",
      "outputs": [
        {
          "internalType": "uint256",
          "name": "",
          "type": "uint256"
        }
      ],
      "stateMutability": "view",
      "type": "function"
    },
    {
      "inputs": [
        {
          "internalType": "uint256",
          "name": "amount",
          "type": "uint256"
        }
      ],
      "name": "burn",
      "outputs": [],
      "stateMutability": "nonpayable",
      "type": "function"
    },
    {
      "inputs": [],
      "name": "decimals",
      "outputs": [
        {
          "internalType": "uint8",
          "name": "",
          "type": "uint8"
        }
      ],
      "stateMutability": "view",
      "type": "function"
    },
    {
      "inputs": [
        {
          "internalType": "bytes32",
          "name": "role",
          "type": "bytes32"
        }
      ],
      "name": "getRoleAdmin",
      "outputs": [
        {
          "internalType": "bytes32",
          "name": "",
          "type": "bytes32"
        }
      ],
      "stateMutability": "view",
      "type": "function"
    },
    {
      "inputs": [
        {
          "internalType": "bytes32",
          "name": "role",
          "type": "bytes32"
        },
        {
          "internalType": "address",
          "name": "account",
          "type": "address"
        }
      ],
      "name": "grantRole",
      "outputs": [],
      "stateMutability": "nonpayable",
      "type": "function"
    },
    {
      "inputs": [
        {
          "internalType": "bytes32",
          "name": "role",
          "type": "bytes32"
        },
        {
          "internalType": "address",
          "name": "account",
          "type": "address"
        }
      ],
      "name": "hasRole",
      "outputs": [
        {
          "internalType": "bool",
          "name": "",
          "type": "bool"
        }
      ],
      "stateMutability": "view",
      "type": "function"
    },
    {
      "inputs": [
        {
          "internalType": "address",
          "name": "to",
          "type": "address"
        },
        {
          "internalType": "uint256",
          "name": "amount",
          "type": "uint256"
        }
      ],
      "name": "mint",
      "outputs": [],
      "stateMutability": "nonpayable",
      "type": "function"
    },
    {
      "inputs": [],
      "name": "name",
      "outputs": [
        {
          "internalType": "string",
          "name": "",
          "type": "string"
        }
      ],
      "stateMutability": "view",
      "type": "function"
    },
    {
      "inputs": [
        {
          "internalType": "bytes32",
          "name": "role",
          "type": "bytes32"
        },
        {
          "internalType": "address",
          "name": "callerConfirmation",
          "type": "address"
        }
      ],
      "name": "renounceRole",
      "outputs": [],
      "stateMutability": "nonpayable",
      "type": "function"
    },
    {
      "inputs": [
        {
          "internalType": "bytes32",
          "name": "role",
          "type": "bytes32"
        },
        {
          "internalType": "address",
          "name": "account",
          "type": "address"
        }
      ],
      "name": "revokeRole",
      "outputs": [],
      "stateMutability": "nonpayable",
      "type": "function"
    },
    {
      "inputs": [
        {
          "internalType": "bytes4",
          "name": "interfaceId",
          "type": "bytes4"
        }
      ],
      "name": "supportsInterface",
      "outputs": [
        {
          "internalType": "bool",
          "name": "",
          "type": "bool"
        }
      ],
      "stateMutability": "view",
      "type": "function"
    },
    {
      "inputs": [],
      "name": "symbol",
      "outputs": [
        {
          "internalType": "string",
          "name": "",
          "type": "string"
        }
      ],
      "stateMutability": "view",
      "type": "function"
    },
    {
      "inputs": [],
      "name": "totalSupply",
      "outputs": [
        {
          "internalType": "uint256",
          "name": "",
          "type": "uint256"
        }
      ],
      "stateMutability": "view",
      "type": "function"
    },
    {
      "inputs": [
        {
          "internalType": "address",
          "name": "to",
          "type": "address"
        },
        {
          "internalType": "uint256",
          "name": "value",
          "type": "uint256"
        }
      ],
      "name": "transfer",
      "outputs": [
        {
          "internalType": "bool",
          "name": "",
          "type": "bool"
        }
      ],
      "stateMutability": "nonpayable",
      "type": "function"
    },
    {
      "inputs": [
        {
          "internalType": "address",
          "name": "from",
          "type": "address"
        },
        {
          "internalType": "address",
          "name": "to",
          "type": "address"
        },
        {
          "internalType": "uint256",
          "name": "value",
          "type": "uint256"
        }
      ],
      "name": "transferFrom",
      "outputs": [
        {
          "internalType": "bool",
          "name": "",
          "type": "bool"
        }
      ],
      "stateMutability": "nonpayable",
      "type": "function"
    }
  ],
  "bytecode": "0x608060405234801561001057600080fd5b506040518060400160405280600981526020017f54657374205449444500000000000000000000000000000000000000000000008152506040518060400160405280600581526020017f5446494445000000000000000000000000000000000000000000000000000000815250816003908161008c9190610805565b50806004908161009c9190610805565b5050506100b26000801b3361018e60201b60201c565b506100e37f9f2df0fed2c77648de5860a4cc508cd0818c85b8b8a1ab4ceeef8d981c8956a63361018e60201b60201c565b5060006100f461028c60201b60201c565b600a6101009190610a46565b6305f5e10061010f9190610a91565b9050610121338261029560201b60201c565b3373ffffffffffffffffffffffffffffffffffffffff163373ffffffffffffffffffffffffffffffffffffffff167f68885acc0d4d52967f8c4265578ad97d47a93661cfbf91b06d9ad0cb625a31f08342604051610180929190610ae2565b60405180910390a350610bed565b60006101a0838361031d60201b60201c565b6102815760016005600085815260200190815260200160002060000160008473ffffffffffffffffffffffffffffffffffffffff1673ffffffffffffffffffffffffffffffffffffffff16815260200190815260200160002060006101000a81548160ff02191690831515021790555061021e61038860201b60201c565b73ffffffffffffffffffffffffffffffffffffffff168273ffffffffffffffffffffffffffffffffffffffff16847f2f8788117e7eff1d82e926ec794901d17c78024a50270940304540a733656f0d60405160405180910390a460019050610286565b600090505b92915050565b60006012905090565b600073ffffffffffffffffffffffffffffffffffffffff168273ffffffffffffffffffffffffffffffffffffffff16036103075760006040517fec442f050000000000000000000000000000000000000000000000000000000081526004016102fe9190610b4c565b60405180910390fd5b6103196000838361039060201b60201c565b5050565b60006005600084815260200190815260200160002060000160008373ffffffffffffffffffffffffffffffffffffffff1673ffffffffffffffffffffffffffffffffffffffff16815260200190815260200160002060009054906101000a900460ff16905092915050565b600033905090565b600073ffffffffffffffffffffffffffffffffffffffff168373ffffffffffffffffffffffffffffffffffffffff16036103e25780600260008282546103d69190610b67565b925050819055506104b5565b60008060008573ffffffffffffffffffffffffffffffffffffffff1673ffffffffffffffffffffffffffffffffffffffff1681526020019081526020016000205490508181101561046e578381836040517fe450d38c00000000000000000000000000000000000000000000000000000000815260040161046593929190610b9b565b60405180910390fd5b8181036000808673ffffffffffffffffffffffffffffffffffffffff1673ffffffffffffffffffffffffffffffffffffffff16815260200190815260200160002081905550505b600073ffffffffffffffffffffffffffffffffffffffff168273ffffffffffffffffffffffffffffffffffffffff16036104fe578060026000828254039250508190555061054b565b806000808473ffffffffffffffffffffffffffffffffffffffff1673ffffffffffffffffffffffffffffffffffffffff168152602001908152602001600020600082825401925050819055505b8173ffffffffffffffffffffffffffffffffffffffff168373ffffffffffffffffffffffffffffffffffffffff167fddf252ad1be2c89b69c2b068fc378daa952ba7f163c4a11628f55a4df523b3ef836040516105a89190610bd2565b60405180910390a3505050565b600081519050919050565b7f4e487b7100000000000000000000000000000000000000000000000000000000600052604160045260246000fd5b7f4e487b7100000000000000000000000000000000000000000000000000000000600052602260045260246000fd5b6000600282049050600182168061063657607f821691505b602082108103610649576106486105ef565b5b50919050565b60008190508160005260206000209050919050565b60006020601f8301049050919050565b600082821b905092915050565b6000600883026106b17fffffffffffffffffffffffffffffffffffffffffffffffffffffffffffffffff82610674565b6106bb8683610674565b95508019841693508086168417925050509392505050565b6000819050919050565b6000819050919050565b60006107026106fd6106f8846106d3565b6106dd565b6106d3565b9050919050565b6000819050919050565b61071c836106e7565b61073061072882610709565b848454610681565b825550505050565b600090565b610745610738565b610750818484610713565b505050565b5b818110156107745761076960008261073d565b600181019050610756565b5050565b601f8211156107b95761078a8161064f565b61079384610664565b810160208510156107a2578190505b6107b66107ae85610664565b830182610755565b50505b505050565b600082821c905092915050565b60006107dc600019846008026107be565b1980831691505092915050565b60006107f583836107cb565b9150826002028217905092915050565b61080e826105b5565b67ffffffffffffffff811115610827576108266105c0565b5b610831825461061e565b61083c828285610778565b600060209050601f83116001811461086f576000841561085d578287015190505b61086785826107e9565b8655506108cf565b601f19841661087d8661064f565b60005b828110156108a557848901518255600182019150602085019450602081019050610880565b868310156108c257848901516108be601f8916826107cb565b8355505b6001600288020188555050505b505050505050565b7f4e487b7100000000000000000000000000000000000000000000000000000000600052601160045260246000fd5b60008160011c9050919050565b6000808291508390505b600185111561095d57808604811115610939576109386108d7565b5b60018516156109485780820291505b808102905061095685610906565b945061091d565b94509492505050565b6000826109765760019050610a32565b816109845760009050610a32565b816001811461099a57600281146109a4576109d3565b6001915050610a32565b60ff8411156109b6576109b56108d7565b5b8360020a9150848211156109cd576109cc6108d7565b5b50610a32565b5060208310610133831016604e8410600b8410161715610a085782820a905083811115610a0357610a026108d7565b5b610a32565b610a158484846001610913565b92509050818404811115610a2c57610a2b6108d7565b5b81810290505b9392505050565b600060ff82169050919050565b6000610a51826106d3565b9150610a5c83610a39565b9250610a897fffffffffffffffffffffffffffffffffffffffffffffffffffffffffffffffff8484610966565b905092915050565b6000610a9c826106d3565b9150610aa7836106d3565b9250828202610ab5816106d3565b91508282048414831517610acc57610acb6108d7565b5b5092915050565b610adc816106d3565b82525050565b6000604082019050610af76000830185610ad3565b610b046020830184610ad3565b9392505050565b600073ffffffffffffffffffffffffffffffffffffffff82169050919050565b6000610b3682610b0b565b9050919050565b610b4681610b2b565b82525050565b6000602082019050610b616000830184610b3d565b92915050565b6000610b72826106d3565b9150610b7d836106d3565b9250828201905080821115610b9557610b946108d7565b5b92915050565b6000606082019050610bb06000830186610b3d565b610bbd6020830185610ad3565b610bca6040830184610ad3565b949350505050565b6000602082019050610be76000830184610ad3565b92915050565b61186180610bfc6000396000f3fe608060405234801561001057600080fd5b50600436106101215760003560e01c806340c10f19116100ad578063a217fddf11610071578063a217fddf1461032e578063a9059cbb1461034c578063d53913931461037c578063d547741f1461039a578063dd62ed3e146103b657610121565b806340c10f191461027857806342966c681461029457806370a08231146102b057806391d14854146102e057806395d89b411461031057610121565b806323b872dd116100f457806323b872dd146101c2578063248a9ca3146101f25780632f2ff15d14610222578063313ce5671461023e57806336568abe1461025c57610121565b806301ffc9a71461012657806306fdde0314610156578063095ea7b31461017457806318160ddd146101a4575b600080fd5b610140600480360381019061013b91906112b1565b6103e6565b60405161014d91906112f9565b60405180910390f35b61015e610460565b60405161016b91906113a4565b60405180910390f35b61018e6004803603810190610189919061145a565b6104f2565b60405161019b91906112f9565b60405180910390f35b6101ac610515565b6040516101b991906114a9565b60405180910390f35b6101dc60048036038101906101d791906114c4565b61051f565b6040516101e991906112f9565b60405180910390f35b61020c6004803603810190610207919061154d565b61054e565b6040516102199190611589565b60405180910390f35b61023c600480360381019061023791906115a4565b61056e565b005b610246610590565b6040516102539190611600565b60405180910390f35b610276600480360381019061027191906115a4565b610599565b005b610292600480360381019061028d919061145a565b610614565b005b6102ae60048036038101906102a9919061161b565b6106b4565b005b6102ca60048036038101906102c59190611648565b6106c1565b6040516102d791906114a9565b60405180910390f35b6102fa60048036038101906102f591906115a4565b610709565b60405161030791906112f9565b60405180910390f35b610318610774565b60405161032591906113a4565b60405180910390f35b610336610806565b6040516103439190611589565b60405180910390f35b6103666004803603810190610361919061145a565b61080d565b60405161037391906112f9565b60405180910390f35b610384610830565b6040516103919190611589565b60405180910390f35b6103b460048036038101906103af91906115a4565b610854565b005b6103d060048036038101906103cb9190611675565b610876565b6040516103dd91906114a9565b60405180910390f35b60007f7965db0b000000000000000000000000000000000000000000000000000000007bffffffffffffffffffffffffffffffffffffffffffffffffffffffff1916827bffffffffffffffffffffffffffffffffffffffffffffffffffffffff191614806104595750610458826108fd565b5b9050919050565b60606003805461046f906116e4565b80601f016020809104026020016040519081016040528092919081815260200182805461049b906116e4565b80156104e85780601f106104bd576101008083540402835291602001916104e8565b820191906000526020600020905b8154815290600101906020018083116104cb57829003601f168201915b5050505050905090565b6000806104fd610967565b905061050a81858561096f565b600191505092915050565b6000600254905090565b60008061052a610967565b9050610537858285610981565b610542858585610a16565b60019150509392505050565b600060056000838152602001908152602001600020600101549050919050565b6105778261054e565b61058081610b0a565b61058a8383610b1e565b50505050565b60006012905090565b6105a1610967565b73ffffffffffffffffffffffffffffffffffffffff168173ffffffffffffffffffffffffffffffffffffffff1614610605576040517f6697b23200000000000000000000000000000000000000000000000000000000815260040160405180910390fd5b61060f8282610c10565b505050565b7f9f2df0fed2c77648de5860a4cc508cd0818c85b8b8a1ab4ceeef8d981c8956a661063e81610b0a565b6106488383610d03565b3373ffffffffffffffffffffffffffffffffffffffff168373ffffffffffffffffffffffffffffffffffffffff167f68885acc0d4d52967f8c4265578ad97d47a93661cfbf91b06d9ad0cb625a31f084426040516106a7929190611715565b60405180910390a3505050565b6106be3382610d85565b50565b60008060008373ffffffffffffffffffffffffffffffffffffffff1673ffffffffffffffffffffffffffffffffffffffff168152602001908152602001600020549050919050565b60006005600084815260200190815260200160002060000160008373ffffffffffffffffffffffffffffffffffffffff1673ffffffffffffffffffffffffffffffffffffffff16815260200190815260200160002060009054906101000a900460ff16905092915050565b606060048054610783906116e4565b80601f01602080910402602001604051908101604052809291908181526020018280546107af906116e4565b80156107fc5780601f106107d1576101008083540402835291602001916107fc565b820191906000526020600020905b8154815290600101906020018083116107df57829003601f168201915b5050505050905090565b6000801b81565b600080610818610967565b9050610825818585610a16565b600191505092915050565b7f9f2df0fed2c77648de5860a4cc508cd0818c85b8b8a1ab4ceeef8d981c8956a681565b61085d8261054e565b61086681610b0a565b6108708383610c10565b50505050565b6000600160008473ffffffffffffffffffffffffffffffffffffffff1673ffffffffffffffffffffffffffffffffffffffff16815260200190815260200160002060008373ffffffffffffffffffffffffffffffffffffffff1673ffffffffffffffffffffffffffffffffffffffff16815260200190815260200160002054905092915050565b60007f01ffc9a7000000000000000000000000000000000000000000000000000000007bffffffffffffffffffffffffffffffffffffffffffffffffffffffff1916827bffffffffffffffffffffffffffffffffffffffffffffffffffffffff1916149050919050565b600033905090565b61097c8383836001610e07565b505050565b600061098d8484610876565b90507fffffffffffffffffffffffffffffffffffffffffffffffffffffffffffffffff811015610a105781811015610a00578281836040517ffb8f41b20000000000000000000000000000000000000000000000000000000081526004016109f79392919061174d565b60405180910390fd5b610a0f84848484036000610e07565b5b50505050565b600073ffffffffffffffffffffffffffffffffffffffff168373ffffffffffffffffffffffffffffffffffffffff1603610a885760006040517f96c6fd1e000000000000000000000000000000000000000000000000000000008152600401610a7f9190611784565b60405180910390fd5b600073ffffffffffffffffffffffffffffffffffffffff168273ffffffffffffffffffffffffffffffffffffffff1603610afa5760006040517fec442f05000000000000000000000000000000000000000000000000000000008152600401610af19190611784565b60405180910390fd5b610b05838383610fde565b505050565b610b1b81610b16610967565b611203565b50565b6000610b2a8383610709565b610c055760016005600085815260200190815260200160002060000160008473ffffffffffffffffffffffffffffffffffffffff1673ffffffffffffffffffffffffffffffffffffffff16815260200190815260200160002060006101000a81548160ff021916908315150217905550610ba2610967565b73ffffffffffffffffffffffffffffffffffffffff168273ffffffffffffffffffffffffffffffffffffffff16847f2f8788117e7eff1d82e926ec794901d17c78024a50270940304540a733656f0d60405160405180910390a460019050610c0a565b600090505b92915050565b6000610c1c8383610709565b15610cf85760006005600085815260200190815260200160002060000160008473ffffffffffffffffffffffffffffffffffffffff1673ffffffffffffffffffffffffffffffffffffffff16815260200190815260200160002060006101000a81548160ff021916908315150217905550610c95610967565b73ffffffffffffffffffffffffffffffffffffffff168273ffffffffffffffffffffffffffffffffffffffff16847ff6391f5c32d9c69d2a47ea670b442974b53935d1edc7fd64eb21e047a839171b60405160405180910390a460019050610cfd565b600090505b92915050565b600073ffffffffffffffffffffffffffffffffffffffff168273ffffffffffffffffffffffffffffffffffffffff1603610d755760006040517fec442f05000000000000000000000000000000000000000000000000000000008152600401610d6c9190611784565b60405180910390fd5b610d8160008383610fde565b5050565b600073ffffffffffffffffffffffffffffffffffffffff168273ffffffffffffffffffffffffffffffffffffffff1603610df75760006040517f96c6fd1e000000000000000000000000000000000000000000000000000000008152600401610dee9190611784565b60405180910390fd5b610e0382600083610fde565b5050565b600073ffffffffffffffffffffffffffffffffffffffff168473ffffffffffffffffffffffffffffffffffffffff1603610e795760006040517fe602df05000000000000000000000000000000000000000000000000000000008152600401610e709190611784565b60405180910390fd5b600073ffffffffffffffffffffffffffffffffffffffff168373ffffffffffffffffffffffffffffffffffffffff1603610eeb5760006040517f94280d62000000000000000000000000000000000000000000000000000000008152600401610ee29190611784565b60405180910390fd5b81600160008673ffffffffffffffffffffffffffffffffffffffff1673ffffffffffffffffffffffffffffffffffffffff16815260200190815260200160002060008573ffffffffffffffffffffffffffffffffffffffff1673ffffffffffffffffffffffffffffffffffffffff168152602001908152602001600020819055508015610fd8578273ffffffffffffffffffffffffffffffffffffffff168473ffffffffffffffffffffffffffffffffffffffff167f8c5be1e5ebec7d5bd14f71427d1e84f3dd0314c0f7b2291e5b200ac8c7c3b92584604051610fcf91906114a9565b60405180910390a35b50505050565b600073ffffffffffffffffffffffffffffffffffffffff168373ffffffffffffffffffffffffffffffffffffffff160361103057806002600082825461102491906117ce565b92505081905550611103565b60008060008573ffffffffffffffffffffffffffffffffffffffff1673ffffffffffffffffffffffffffffffffffffffff168152602001908152602001600020549050818110156110bc578381836040517fe450d38c0000000000000000000000000000000000000000000000000000000081526004016110b39392919061174d565b60405180910390fd5b8181036000808673ffffffffffffffffffffffffffffffffffffffff1673ffffffffffffffffffffffffffffffffffffffff16815260200190815260200160002081905550505b600073ffffffffffffffffffffffffffffffffffffffff168273ffffffffffffffffffffffffffffffffffffffff160361114c5780600260008282540392505081905550611199565b806000808473ffffffffffffffffffffffffffffffffffffffff1673ffffffffffffffffffffffffffffffffffffffff168152602001908152602001600020600082825401925050819055505b8173ffffffffffffffffffffffffffffffffffffffff168373ffffffffffffffffffffffffffffffffffffffff167fddf252ad1be2c89b69c2b068fc378daa952ba7f163c4a11628f55a4df523b3ef836040516111f691906114a9565b60405180910390a3505050565b61120d8282610709565b6112505780826040517fe2517d3f000000000000000000000000000000000000000000000000000000008152600401611247929190611802565b60405180910390fd5b5050565b600080fd5b60007fffffffff0000000000000000000000000000000000000000000000000000000082169050919050565b61128e81611259565b811461129957600080fd5b50565b6000813590506112ab81611285565b92915050565b6000602082840312156112c7576112c6611254565b5b60006112d58482850161129c565b91505092915050565b60008115159050919050565b6112f3816112de565b82525050565b600060208201905061130e60008301846112ea565b92915050565b600081519050919050565b600082825260208201905092915050565b60005b8381101561134e578082015181840152602081019050611333565b60008484015250505050565b6000601f19601f8301169050919050565b600061137682611314565b611380818561131f565b9350611390818560208601611330565b6113998161135a565b840191505092915050565b600060208201905081810360008301526113be818461136b565b905092915050565b600073ffffffffffffffffffffffffffffffffffffffff82169050919050565b60006113f1826113c6565b9050919050565b611401816113e6565b811461140c57600080fd5b50565b60008135905061141e816113f8565b92915050565b6000819050919050565b61143781611424565b811461144257600080fd5b50565b6000813590506114548161142e565b92915050565b6000806040838503121561147157611470611254565b5b600061147f8582860161140f565b925050602061149085828601611445565b9150509250929050565b6114a381611424565b82525050565b60006020820190506114be600083018461149a565b92915050565b6000806000606084860312156114dd576114dc611254565b5b60006114eb8682870161140f565b93505060206114fc8682870161140f565b925050604061150d86828701611445565b9150509250925092565b6000819050919050565b61152a81611517565b811461153557600080fd5b50565b60008135905061154781611521565b92915050565b60006020828403121561156357611562611254565b5b600061157184828501611538565b91505092915050565b61158381611517565b82525050565b600060208201905061159e600083018461157a565b92915050565b600080604083850312156115bb576115ba611254565b5b60006115c985828601611538565b92505060206115da8582860161140f565b9150509250929050565b600060ff82169050919050565b6115fa816115e4565b82525050565b600060208201905061161560008301846115f1565b92915050565b60006020828403121561163157611630611254565b5b600061163f84828501611445565b91505092915050565b60006020828403121561165e5761165d611254565b5b600061166c8482850161140f565b91505092915050565b6000806040838503121561168c5761168b611254565b5b600061169a8582860161140f565b92505060206116ab8582860161140f565b9150509250929050565b7f4e487b7100000000000000000000000000000000000000000000000000000000600052602260045260246000fd5b600060028204905060018216806116fc57607f821691505b60208210810361170f5761170e6116b5565b5b50919050565b600060408201905061172a600083018561149a565b611737602083018461149a565b9392505050565b611747816113e6565b82525050565b6000606082019050611762600083018661173e565b61176f602083018561149a565b61177c604083018461149a565b949350505050565b6000602082019050611799600083018461173e565b92915050565b7f4e487b7100000000000000000000000000000000000000000000000000000000600052601160045260246000fd5b60006117d982611424565b91506117e483611424565b92508282019050808211156117fc576117fb61179f565b5b92915050565b6000604082019050611817600083018561173e565b611824602083018461157a565b939250505056fea264697066735822122026ff6c0a90134e4ffbb697bbda81693d7e62af5417d75cd6fca98abc14bfc3c064736f6c634300081c0033",
  "linkReferences": {},
  "deployedLinkReferences": {}
}